:020000040800F2
:10000000EF008051170700001307072B73105730BC
:10001000F3275030E31EF7FE1306800073300630DE
:100020007310403073104034732540F163060500AF
:1000300073503030735020307310003473102034FC
:10004000731010347310003A7310203A93000000BC
:10005000130100009301000013020000930200004E
:100060001303000093030000130400009304000036
:10007000130500009305000013060000930600001E
:100080001307000093070000130800009308000006
:100090001309000093090000130A0000930A0000EE
:1000A000130B0000930B0000130C0000930C0000D6
:1000B000130D0000930D0000130E0000930E0000BE
:1000C000130F0000930F0000B7E2010073A002308D
:1000D000732540F163020500F322103063C402006F
:1000E0006FF09FFF97E102009381C13F732540F1BC
:1000F000930500006302B502930510006308B50282
:1001000093052000630EB502930530006304B50427
:1001100093054000630AB50417371700130787EEED
:1001200017511700130101EE6F0000051757170054
:10013000130747ED177117001301C1EC6F00C003DF
:1001400017771700130707EC17911700130181EBBE
:100150006F008002179717001307C7EA17B117003F
:10016000130141EA6F00400117B71700130787E931
:1001700017D11700130101E993070100233007008D
:1001800013078700E34CF7FE130101FC1302010083
:10019000732540F193050000631AB508130610009B
:1001A0006306C000EF00802EEF00802C13051000C6
:1001B000EF00402FEF100011EF10A00FEF00802A8A
:1001C000170717001307076B972717009387876A8E
:1001D0002330070013078700E34CF7FE3707700151
:1001E0001B07070223000700371770011B070702D0
:1001F00023000700372770011B07070223000700B1
:10020000373770011B0707022300070037477001CB
:100210001B07070223000700130502006F00206B75
:1002200013000000130000006FF09FFF1306800012
:100230007330063073104030731040341306800062
:1002400073104630B74634129B8616329755170006
:10025000938545D703E60500E39EC6FEB7553412E5
:100260009B8585672320B2000F100000730050109B
:100270007326403413768600E30A06FE13068000D8
:10028000733006307310403073104034B7250200CD
:100290009B8555D99395E500938515322320B200AF
:1002A000130502006F00F0081300000013000000A7
:1002B0006FF09FFF130101F0233821002338A104C0
:1002C000233CB10423341100233C3100233041028C
:1002D0002334510223386102233C7102233081040C
:1002E000233491042330C1062334D1062338E10698
:1002F000233CF10623300109233411092338210955
:10030000233C31092330410B2334510B2338610B3B
:10031000233C710B2330810D2334910D2338A10D23
:10032000233CB10D2330C10F2334D10F2338E10F0B
:10033000233CF10F13050100F325303473261034EC
:10034000EF001064833081008331810103320102A8
:1003500083328102033301038333810303340104B5
:100360008334810403350105833581050336010695
:100370008336810603370107833781070338010875
:10038000833881080339010983398109033A010A55
:10039000833A810A033B010B833B810B033C010C35
:1003A000833C810C033D010D833D810D033E010E15
:1003B000833E810E033F010F833F810F0331010113
:1003C00013010110730020301306800073104630B3
:1003D00013068000732006300F10000067800000B5
:1003E0006358B50023300500130585006FF05FFFEB
:1003F00067800000630AB5002330C500130585003F
:10040000130686006FF01FFF67800000638EA50053
:10041000638CC5008336050023B0D5001305850025
:10042000938585006FF0DFFE67800000971700F965
:100430009387477D17E702001307C7836382E702AC
:10044000972600F99386C682638CD700032607009F
:1004500023A0C7009387470013074700E3E8D7FEB0
:10046000678000003707000A930705006F008002CD
:1004700017060000130606B9370700083376E600B2
:1004800063100602B70720086F00C000370700019D
:10049000B72700012330070013078700E34CF7FE5E
:1004A0006780000013151501B707000A3305F50032
:1004B0006302F50283B6070093870704E39CA7FE57
:1004C000B707000AB706010223B0F6209387070496
:1004D000E39CA7FE67800000B70701029B87871691
:1004E0001307050083A3070023207700B707010245
:1004F0009B8787141387050083A3070023207700B9
:10050000B70701029B8787101307060083A3070024
:10051000232077006780000093870000130000000D
:10052000EF00400213000000130000001300000061
:100530001300000013000000130000009380070068
:10054000678000001300000013000000130000008B
:10055000130000001300000013000000678000007B
:100560002A83B682054323A06200014323A26200CE
:10057000328323B462002A8323B862002E8323BC13
:1005800062001B03F00F1313830123A262000D43CB
:1005900023A062000F00F00F8280AA8203A3020052
:1005A00013732300E31C03FE23A0020082802A832E
:1005B000AE8311C6230073007D16050365FE82809D
:1005C0002A8309CA83830500230073007D1605036F
:1005D00085056DFA82802A8309CA8393050023105A
:1005E00073007916090389056DFA82802A8309CA86
:1005F00083A30500232073007116110391056DFA82
:1006000082802A8309CA83B30500233073006116F0
:100610002103A1056DFA82802A83AE832A8E2330BE
:100620000300833E030013030304E34A73FE37030E
:1006300001022330C321130E0E04E34C7EFE8280A0
:100640000000011122EC00102334A4FE3707000241
:10065000833784FE8A07BA97054798C30F00F00FC7
:100660000100626405618280011122EC0010F32711
:1006700040F12334F4FE833784FE2330F4FE370741
:10068000000C97960200938666CC833704FE8E0793
:10069000B6979C6393870720B207BA97DC438127FC
:1006A0003E85626405618280797122F40018AA8710
:1006B000232EF4FCF32740F12334F4FE833784FE29
:1006C0002330F4FE8327C4FD1B8707009307A00B8C
:1006D00063F3E70002903707000C979602009386B9
:1006E000E6C6833704FE8E07B6979C639387072080
:1006F000B207BA970327C4FDD8C30100227445612D
:100700008280011106EC22E80010EFF0FFF5AA87C5
:1007100081272326F4FE25A88327C4FE81273E8552
:10072000EFF09FF8BD472324F4FE01A8832784FE41
:100730008127FD3781272324F4FE832784FE812728
:10074000F5F7EFF07FF2AA8781272326F4FE8327AF
:10075000C4FE8127F1F30100E260426405618280FA
:10076000011106EC22E80010232604FE31A8370709
:10077000000C8367C4FE8A07BA9723A20700832769
:10078000C4FE85272326F4FE8327C4FE1B870700AB
:100790009307A00BE3FDE7FC232604FE05A0370723
:1007A000000C8367C4FE93870720B207BA971D47E2
:1007B00098C38327C4FE85272326F4FE8327C4FE1F
:1007C0001B870700A147E3FCE7FC232604FED5A016
:1007D0003707000C8366C4FE856793870780B6974A
:1007E0008A07BA9723A007003707000C8366C4FE68
:1007F000856793870782B6978A07BA9723A0070071
:100800003707000C8366C4FE856793870784B69715
:100810008A07BA9723A007003707000C8366C4FE37
:10082000856793870786B6978A07BA9723A007003C
:100830003707000C8366C4FE856793870788B697E1
:100840008A07BA9723A007003707000C8366C4FE07
:1008500085679387078AB6978A07BA9723A0070008
:100860003707000C8366C4FE85679387078CB697AD
:100870008A07BA9723A007003707000C8366C4FED7
:1008800085679387078EB6978A07BA9723A00700D4
:100890003707000C8366C4FE856793870790B69779
:1008A0008A07BA9723A007008327C4FE852723263B
:1008B000F4FE8327C4FE1B8707009547E3FAE7F0A1
:1008C000EFF03FE40100E2604264056182805D7107
:1008D00086E4A2E08008233CA4FAF32740F1233801
:1008E000F4FC833704FD2334F4FC833784FC6392E7
:1008F0000724EF00E03BEF00A038EF10F003EF001B
:1009000000440145EF0020450145EF20F067014517
:10091000EF007058EF00105EEF00B069EFF05FE499
:10092000974717009387076E2330F4FE833704FE42
:10093000938707FC233CF4FA833784FB3747341250
:100940001307173298C3833784FB23A20700232E93
:1009500004FC8547A307F4FEADA2232204FC8327F1
:10096000C4FD1B87070089476300F70C8327C4FD7C
:100970001B8707008D47630BF70C8327C4FD1B877C
:10098000070085476303F7088347F4FE8127BE8687
:100990000947638BE602BE8609476347D7003E8757
:1009A0008547630CF700B1A0BE860D476385E6025C
:1009B0003E8791476308F7022DA897671700938732
:1009C00067642330F4FE35A0978717009387876309
:1009D0002330F4FE39A897A717009387A762233026
:1009E000F4FE01A897C717009387C7612330F4FE70
:1009F0000100833704FE938707FC233CF4FA854704
:100A0000232EF4FC232204FC6DA8833784FB9C4333
:100A100081273E87B7573412938787676313F70A96
:100A20008947232EF4FC71A88347F4FE1B87070037
:100A3000833784FBD8C38347F4FE3E85EFF07FC045
:100A40008D47232EF4FC232204FCA5A8833784FBC6
:100A50009C4381273E87B747658793871732631C7E
:100A6000F700232E04FC8347F4FE8527A307F4FE3A
:100A7000232204FCB1A0832744FC85272322F4FC15
:100A8000832744FC1B870700C14763FBE7028337CA
:100A900084FB9C4381273E87B7573412938787672F
:100AA0006310F7028347F4FE1B870700833784FB3C
:100AB000D8C38347F4FE3E85EFF0BFB8232204FC81
:100AC00001008347F4FE13F7F70F8547E3F7E7E8E4
:100AD00097471700938707532330F4FE833704FEAC
:100AE000938707FC233CF4FA833784FB375755552B
:100AF0001307575598C30146814513050002EF209F
:100B0000B03A0146814513051002EF20F039014645
:100B1000814513052002EF20303901468145130538
:100B20003002EF207038EF207043033584FBEF0074
:100B300040005D7186E4A2E08008233CA4FA974758
:100B400017009387274C938707FC2334F4FE97679D
:100B500017009387274B938707FC2330F4FE978772
:100B600017009387274A938707FC233CF4FC97A739
:100B7000170093872749938707FC2338F4FC97C70E
:100B8000170093872748938707FC2334F4FC8337A7
:100B900084FBDC438127BE861147636BD70813971C
:100BA0002700970700009387A70ABA979C431B87E3
:100BB0000700970700009387A709BA9782878337B2
:100BC00084FE3301F0002330F4FCEF40821595A041
:100BD0000545EF004018833704FE3301F000233051
:100BE000F4FCEF30427EB1A00945EF00C016833718
:100BF00084FD3301F0002330F4FCEF30026215A8CD
:100C00000D45EF004015833704FD3301F00023301C
:100C1000F4FCEF30C24531A81145EF00C013833713
:100C200084FC3301F0002330F4FCEF30822911A062
:100C3000010097E70200938767629C6313871700A0
:100C400097E702009387876198E3E5B772FFFFFF9C
:100C500084FFFFFF9CFFFFFFB4FFFFFFCCFFFFFF00
:100C60001305000073104534730050106FF05FFFE0
:100C70006FF01FFF6FF0DFFE6FF09FFE6FF05FFE03
:100C8000011106EC22E80010B73700209387071205
:100C90002334F4FE1146970500009385A5FC033527
:100CA00084FEEFF0FF910100E26042640561828002
:100CB000411106E422E0000817D60200130686FB65
:100CC0009715000093850587171500001305858685
:100CD000EFF0CFF31386018A97D502009385850044
:100CE00017D5020013050500EFF04FF217E60200DA
:100CF0001306465697D502009385C50817D50200FE
:100D000013054508EFF08FF097E502009385857293
:100D100017E5020013050554EFF08FEC9705170057
:100D2000938545B517E502001305C570EFF04FEB4D
:100D3000EF20904D0100A2600264410182804111C8
:100D400006E422E00008EF20607881473E85A2603B
:100D5000026441018280011106EC22E80010AA879A
:100D6000A307F4FE8347F4FE3E85EF20F02381477E
:100D70003E85E260426405618280397122FC800018
:100D8000AA872326F4FCF32740F12334F4FE8337AB
:100D900084FE2330F4FE033704FE914763E1E72627
:100DA000833704FE139727009707000093870726D1
:100DB000BA979C431B870700970700009387072576
:100DC000BA9782873707000C8327C4FC9BD757004C
:100DD0008127939607028192856793870780B6974C
:100DE0008A07BA979C43232EF4FC8327C4FCFD8B0F
:100DF00081273E878547BB97E700812793C7F7FF89
:100E00001B8707008327C4FDF98F232EF4FC3707C7
:100E1000000C8327C4FC9BD75700812793960702B9
:100E20008192856793870780B6978A07BA970327C9
:100E3000C4FD98C3F1A23707000C8327C4FC9BD7DD
:100E400057008127939607028192856793870782CF
:100E5000B6978A07BA979C43232EF4FC8327C4FCD9
:100E6000FD8B81273E878547BB97E700812793C786
:100E7000F7FF1B8707008327C4FDF98F232EF4FC9F
:100E80003707000C8327C4FC9BD757008127939614
:100E900007028192856793870782B6978A07BA9778
:100EA0000327C4FD98C3A9AA3707000C8327C4FCF5
:100EB0009BD7570081279396070281928567938776
:100EC0000786B6978A07BA979C43232EF4FC83279C
:100ED000C4FCFD8B81273E878547BB97E7008127B0
:100EE00093C7F7FF1B8707008327C4FDF98F232EC5
:100EF000F4FC3707000C8327C4FC9BD757008127DD
:100F0000939607028192856793870786B6978A072B
:100F1000BA970327C4FD98C3E5A03707000C8327C1
:100F2000C4FC9BD75700812793960702819285675F
:100F30009387078AB6978A07BA979C43232EF4FCB7
:100F40008327C4FCFD8B81273E878547BB97E7003D
:100F5000812793C7F7FF1B8707008327C4FDF98FFD
:100F6000232EF4FC3707000C8327C4FC9BD75700C3
:100F7000812793960702819285679387078AB697A0
:100F80008A07BA970327C4FD98C39DA83707000CAA
:100F90008327C4FC9BD75700812793960702819231
:100FA00085679387078EB6978A07BA979C43232E47
:100FB000F4FC8327C4FCFD8B81273E878547BB97C4
:100FC000E700812793C7F7FF1B8707008327C4FD2E
:100FD000F98F232EF4FC3707000C8327C4FC9BD722
:100FE0005700812793960702819285679387078E22
:100FF000B6978A07BA970327C4FD98C311A00100CA
:101000000100627421618280BCFDFFFF2EFEFFFFA4
:10101000A0FEFFFF12FFFFFF84FFFFFF011122EC84
:101020000010F32740F12334F4FE833784FE23308D
:10103000F4FE3707000C978602009386263183372B
:1010400004FE8E07B6979C6393870720B207BA9772
:10105000DC4381273E85626405618280797122F4D8
:101060000018AA87232EF4FCF32740F12334F4FE62
:10107000833784FE2330F4FE8327C4FD1B870700DB
:101080009307A00B63F3E70002903707000C9786E5
:1010900002009386A62B833704FE8E07B6979C63C7
:1010A00093870720B207BA970327C4FDD8C301006E
:1010B000227445618280011106EC22E80010EFF0F5
:1010C000FFF5AA8781272324F4FE832784FE812746
:1010D000B9C7A30704FE832784FE812717D7020020
:1010E000130747D1821781938E07BA979C63829723
:1010F000AA87A307F4FE832784FE81273E85EFF0AD
:10110000FFF58347F4FE13F7F70F8547631AF700DF
:10111000832784FE81273E85EFF03FC611A00100A2
:10112000E260426405618280397106FC22F8800029
:10113000AA87A307F4FCF32740F12334F4FE833796
:1011400084FE2330F4FE8347F4FCC137A30FF4FC84
:1011500017E702001307879F833704FE8E07BA97AD
:101160009C632338F4FC8347F4FD8E07033704FDAA
:10117000BA979C6382970100E27042742161828079
:101180005D7186E4A2E080082334A4FC2330B4FC23
:10119000233CC4FAF32720342330F4FE833704FEC3
:1011A000233CF4FC033784FDFD57FE177D8FFD576C
:1011B000FE176317F702033784FD85578583F98F80
:1011C00085C3033784FD930710F88583F98F89EB76
:1011D000833784FD93F7F70F3E85EFF0FFF4E9A026
:1011E000033784FDFD57FE177D8FFD57FE17631DE6
:1011F000F700033784FDFD5785837D8FAD47631569
:10120000F700EFF05FEB4DA0033784FDFD57FE17AD
:101210007D8FFD57FE17631DF700033784FDFD57D3
:1012200085837D8F8D476315F700EF10601EADA895
:10123000033784FDFD57FE177D8FFD57FE17631D95
:10124000F700033784FDFD5785837D8F9D47631528
:10125000F700EF10800E89A8033784FDFD57FE17B5
:101260007D8FFD57FE17631EF700033784FDFD5782
:1012700085837D8F930700086315F700EF003079B1
:1012800025A0232604FE8327C4FE85272326F4FEFB
:101290008327C4FE1B8707008567E316F7FE8337A5
:1012A00084FD2326F4FEC5B70100A66006646161D3
:1012B0008280411122E40008B707000A3E852264BB
:1012C00041018280011106EC22E8001017F71D0091
:1012D000130747D397F7FFFF9387C7D21D8FB70731
:1012E0001E0063F3E7000290B7070102A1072FB0C9
:1012F0000708B727002023AA0716EF00C0192326E6
:1013000004FE8327C4FE858B812791C30290832727
:10131000C4FE858B812791C302908327C4FE858BF1
:10132000812791C302908327C4FE858B812791C3B7
:1013300002908327C4FE858B812791C30290832767
:10134000C4FE858B812791C302908327C4FE858BC1
:10135000812791C302908327C4FE858B812791C387
:1013600002908327C4FE858B812791C30290832737
:10137000C4FE858B812791C302908327C4FE858B91
:10138000812791C302908327C4FE858B812791C357
:1013900002908327C4FE858B812791C30290832707
:1013A000C4FE858B812791C302908327C4FE858B61
:1013B000812791C30290B7170102938707800547E1
:1013C0002FB0E708B71701029387878005472FB032
:1013D000E708B71701029387078105472FB0E70891
:1013E000B71701029387878105472FB0E708B71722
:1013F00001029387078205472FB0E708B71701025C
:101400009387078305472FB0E708B7170102938733
:10141000878305472FB0E708B71701029387078432
:1014200005472FB0E708B717010293878784054760
:101430002FB0E708B71701029387078505472FB03C
:10144000E708B71701029387878505472FB0E7089C
:10145000B71701029387078605472FB0E708B7172C
:1014600001029387878605472FB0E708B717010267
:101470009387078705472FB0E708B71701029387BF
:10148000878205472FB0E7080F00F00F0100E260E8
:10149000426405618280797122F4001897F7FF0198
:1014A000938747B62330F4FE97F7FF01938787B5FC
:1014B000233CF4FC033784FDB707000A6373F7008D
:1014C0000290033704FEB707000C6363F700029035
:1014D000033704FE833784FD6373F70002900337FC
:1014E00004FE833784FDB307F740C583A307F4FEEA
:1014F000033704FE833784FD1D8FB7070200FD17F5
:10150000F98F2338F4FC833704FD91C78347F4FE39
:101510008527A307F4FE8347F4FE93F7F70F91C3E3
:1015200002900100227445618280000000000000EA
:10153000797122F40018AA87232EF4FC17171700DC
:101540001307473397F716009387C73263E3E70023
:10155000029097E702009387E7CF9C6391EB97E7B0
:101560000200938727CF17F716001307A73098E3D9
:1015700097E70200938707CE9C632334F4FE97E736
:101580000200938727CD98638327C4FD3E9797E792
:101590000200938727CC98E397E70200938787CBD5
:1015A0009863971717009387E72C63F3E70002907F
:1015B000833784FE3E85227445618280011106ECEA
:1015C00022E80010A30704FEEF00E001AA87A307AA
:1015D000F4FE0145EF0000078347F4FE3E85E2601C
:1015E000426405618280411106E422E000087146F0
:1015F00097C5020093850579B7270020138507203A
:10160000EFE0DFFE714697C502009385A579B72705
:10161000002013854723EFE07FFD1306000397C5E5
:1016200002009385257AB727002013854725EFE030
:10163000FFFB0145EF00000181473E85A260026487
:1016400041018280011122EC0010AA872326F4FEBA
:101650008327C4FE1B87070085476309F70297C7E6
:1016600002009387275A9C63371708001307779067
:1016700023A2E71C97C702009387C7589C633717BC
:1016800008001307779023A4E71C11A001000100B4
:10169000626405618280011122EC0010AA87232672
:1016A000F4FEB72700200327C4FEF8CB01006264D4
:1016B00005618280397122FC8000AA872326F4FC10
:1016C000F32700C02334F4FE033784FE8367C4FC91
:1016D000BA97233CF4FC0100F32700C02330F4FE4A
:1016E000033704FE833784FDE368F7FE010062746C
:1016F00021618280011106EC22E80010A30704FE9C
:10170000EF00800CB707083737A708001307070852
:1017100098C7B7270020054723ACE708B777002014
:1017200037273F00130707F098C7377700208567F2
:10173000BA971307F04723AEE7C0EFF03FE8AA8758
:101740003E878347F4FED98FA307F4FEB737002006
:101750000567130707F023AEE71A1305C012EFF071
:101760007FF5B737002005671307078023AEE71A18
:101770001305C012EFF01FF4B737002009671307F5
:10178000078023AEE71A1305C012EFF0BFF2B73798
:10179000002011671307078023AEE71AEF00802EA1
:1017A000EF0060128347F4FE3E85E260426405610B
:1017B0008280011122EC0010A30704FE8347F4FE8F
:1017C0003E85626405618280411122E40008B727EA
:1017D0000020DC471B870700B7270020BA86417727
:1017E0007D17758F0127D8C7B72700201307D007AB
:1017F000D8C7B7270020DC471B870700B727002082
:10180000BA864167558F0127D8C70100226441017C
:101810008280011122EC0010B727003E13075015FB
:1018200098C7B707203E0D67130707C398CBB727A4
:10183000003E13078020D8C3B727003E23AA070025
:10184000B727003E23AC0700B727003E23AE0700B2
:10185000232604FE01A88327C4FE8127852781272C
:101860002326F4FE8327C4FE81273E879307700C4E
:10187000E3F3E7FE0100626405618280011122EC5E
:101880000010AA87A307F4FE8347F4FE81273E8752
:1018900085476301F702B707203E154798C7B7078A
:1018A000203E0D67130707C398CBB707203E1547A7
:1018B000D8C331A0B707203E054798C301000100F7
:1018C000626405618280011106EC22E80010EFE0FD
:1018D000FFB5B707013E0D4798C3B717003E0D4748
:1018E00098C3B717003E370700015907D8C3B71789
:1018F000003E1307005098C7B717003E3707000196
:101900001307071098CBB717003E370700011307DE
:101910000730D8CBB717003E05671307070298CFEB
:10192000B717003E23A60700B717003E23A2070201
:10193000B717003E23A40702B717003E130700069F
:10194000D8D7B717003E054798DBB717003E116799
:101950000D0798D3EFF0FFEBB717003E37070001F4
:101960005D07D8C3B7070001FD172326F4FE25A0A5
:101970008327C4FE812789CB8327C4FE8127FD37B7
:1019800081272326F4FE01A8B7070001FD172326AF
:10199000F4FEEF00A002B717003EDC4381273E872C
:1019A000B7070002F98F8127E1D7970000F9E78098
:1019B00060250100E260426405618280411122E4F9
:1019C000000802900100226441018280011122EC92
:1019D0000010AA87A307F4FE8347F4FE81273E8701
:1019E00085476308F708B707083E0D4798C3B70750
:1019F000083E370700011307E703D8C3B707083EBF
:101A00001307001098C7B707083E370700011307F0
:101A1000071098CBB707083E3707000113070710D8
:101A2000D8CBB707083E05671307070298CFB7075B
:101A3000083E23A60700B707083E23A20702B70700
:101A4000083E23A40702B707083E5147D8D7B70777
:101A5000083E054798DBB707083E1D671307374464
:101A600098D3B707083E370700011307F703D8C319
:101A700031A0B707083E054798C301000100626422
:101A800005618280411106E422E000080100EF00B8
:101A90006001AA878127E5FF81473E85A260026435
:101AA00041018280411106E422E0000897D702003C
:101AB0009387C77B9C43BE8639476369D74E13978C
:101AC0002700977702009387E72DBA979C431B87DF
:101AD0000700977702009387E72CBA97828797C70A
:101AE000020093872720054798C397C70200938772
:101AF000E71098638567BA971307101023A0E7C013
:101B000097C702009387870F98638567BA97054741
:101B100023A0E7C0EF00C04AB707403E054798C37F
:101B200097D7020093878774054798C341A197D739
:101B300002009387E7739C4385271B87070097D78D
:101B400002009387E77298C397C702009387070B39
:101B500098638567BA9783A707C2812793F707041D
:101B60008127638A074297D702009387677023A073
:101B7000070097D702009387676F094798C321A989
:101B800097D702009387C76E9C4385271B87070062
:101B900097D702009387C76D98C397D702009387A2
:101BA000276D9C433E87B94763F9E73E97D702000C
:101BB0009387076C23A0070097D702009387076BD2
:101BC0000D4798C3D9AE97C702009387A7039C63BC
:101BD00023A00710B707103E054798C3B707503634
:101BE000054798C3B7075136054798C397C7020002
:101BF0009387C70098638567BA971307F04723AEAA
:101C0000E7C097C70200938767FF98638567BA9715
:101C10001307F00723AEE7C097C70200938707FFBB
:101C20009C63054798C397C70200938727FE9C6370
:101C300023A0070097D7020093874763114798C3F3
:101C4000B5A697C70200938767FB98638567BA9725
:101C500083A707C281273E879167F98F81273E8737
:101C60009167631EF73297D7020093872760154765
:101C700098C335A697C70200938747F8986385678E
:101C8000BA9783A707C21B87070097C702009387ED
:101C9000E7F69463B7070040D98F1B870700856775
:101CA000B69723A0E7C297C70200938727F69C63E5
:101CB000DC431B87070097C70200938727F59C63C7
:101CC000BA861167558F0127D8C397D7020093872B
:101CD000E759194798C3D9AC0545EFF03FBA054518
:101CE000EFF0DFCE97D702009387875823A0070035
:101CF00097D70200938787571D4798C345AC97C76E
:101D000002009387A7EF98638567BA9783A787C078
:101D1000812793F7070881276385072897D7020053
:101D20009387C754214798C3ADAC97C702009387E8
:101D3000E7EC98638567BA9783A747C181273E87F9
:101D4000B7078000F98F8127638F072497D7020098
:101D50009387C751254798C3B9A40146814541459A
:101D6000EF109014014681454145EF10F013B7077D
:101D700011209107DC431B870700B707112091074B
:101D8000BA860567130707C0558F0127D8C3B72741
:101D900011209107DC431B870700B727112091070B
:101DA000BA860567130707C0558F0127D8C397D791
:101DB00002009387A74B294798C3CDAA97C7020073
:101DC0009387C7E398638567BA9783A747C181273D
:101DD0009BD70701812793F7F7071B87070097D742
:101DE00002009387674898C397C70200938707E16B
:101DF00098638567BA9783A787C28127812763DDA8
:101E0000070097D702009387E745054798C39D458C
:101E10001945EF00A0263DA897D702009387C74435
:101E20009C433E87B14763EDE70097D70200938755
:101E30006743094798C395451945EF00202419A821
:101E400097D70200938707420D4798C399451D45D0
:101E5000EF00C02297D70200938747412D4798C3D0
:101E6000B1A297C70200938767D998638567BA972D
:101E700019671307F70723AEE7C097C702009387D8
:101E8000E7D798638567BA971307F00723AEE7C0D3
:101E900097D702009387073D9C433E878547631F82
:101EA000F70097D702009387A73C23A0070097D796
:101EB00002009387A73B314798C3CDA897D702006C
:101EC0009387C73A394798C3D5A097D7020093871D
:101ED000273A9C4385271B87070097D702009387E3
:101EE000273998C397D70200938787389C433E874A
:101EF0008567F91763FBE70A97D70200938747378F
:101F000023A0070097D7020093874736354798C329
:101F100069A897C70200938767CE98638567BA97C9
:101F200083A787C281278217819313F7F70393074B
:101F3000000463F9E70097D70200938727333947F6
:101F400098C3ADA099451D45EF00401397C7020007
:101F50009387C7CA98638567BA9719671307F70706
:101F600023AEE7C097C70200938747C99863856788
:101F7000BA971307F00723AEE7C097D702009387FD
:101F8000E72E394798C31DA097C70200938787D5CE
:101F900023A0070021A8010011A8010001A8010049
:101FA00031A0010021A0010011A0010097C702008B
:101FB000938747D39C433E85A2600264410182809F
:101FC000411122E4000897C70200938727C3986352
:101FD0008567BA9737F780081307F72323A2E7C06E
:101FE00097C70200938787C198638567BA97377749
:101FF000F0371307077723A6E7C097C70200938738
:10200000E7BF98638567BA973707FE00090723A8DB
:10201000E7C097C70200938767BE98638567BA9742
:1020200009671307870C23AAE7C097C702009387A5
:10203000E7BC98638567BA97375700F01307C70C5A
:1020400023ACE7C097C70200938747BB98638567B7
:10205000BA97370700FF23A2E7C297C7020093870A
:10206000E7B998638567BA97370714801307171085
:1020700023A4E7C00100226441018280797122F427
:102080000018AA872E87A30FF4FCBA87230FF4FC4D
:102090008347F4FD81279B97A70181272326F4FE20
:1020A0008347F4FD81279B97D70181271B87070072
:1020B0008327C4FED98F2326F4FE97C70200938797
:1020C000E7B394630327C4FEB7070003D98F1B87C8
:1020D00007008567B69723A2E7C28347E4FD8127FF
:1020E0009B97570181272324F4FE97C7020093870B
:1020F000E7B09463032784FEB77710B79387077719
:10210000D98F1B8707008567B69723A6E7C097C7B7
:1021100002009387A7AE9463032784FEB7071E804F
:102120008907D98F1B8707008567B69723A8E7C063
:102130000100227445618280011122EC0010A30786
:1021400004FE55A88347F4FE1B870700B7067001FD
:102150008347F4FE8127177602001306A6C80E07F0
:1021600032971863B207B69798EB8347F4FE1B8744
:102170000700B70670018347F4FE81271776020037
:102180001306C6C80E0732971863B207B69798EFC2
:102190008347F4FE1B870700B70670018347F4FEF0
:1021A0008127177602001306E6C80E0732971863D8
:1021B000B207B69798F7370770018347F4FE812777
:1021C000B207BA9723B00700370770018347F4FEC0
:1021D0008127B207BA9723B00702370770018347F8
:1021E000F4FE8127B207BA9723B407008347F4FEB1
:1021F0008527A307F4FE8347F4FE13F7F70F8547FF
:10220000E3F2E7F481473E85626405618280411113
:1022100022E400080100226441018280797122F4E5
:102220000018F32740F12334F4FE833784FE233073
:10223000F4FE37070002833704FE8A07BA9723A00B
:10224000070037070002833704FE8A07BA979C43CA
:102250008127232EF4FC8327C4FD010022744561ED
:1022600082805D7186E4A2E0800897770200938700
:10227000E7BE98632330E4FC98672334E4FC9C4B6E
:102280002328F4FC8547232EF4FAF32740F1233466
:10229000F4FE833784FE2330F4FE833704FE8A077E
:1022A000130704FFBA9703A707FD9307803EBB07F8
:1022B000F702812713970702019397D602009386AE
:1022C0006617833704FE8E07B69798E317D7020088
:1022D00013074716833704FE8E07BA979C63B1C76E
:1022E00037070002B167BA9703B787FF97D6020096
:1022F00093864614833704FE8E07B6979C63B70611
:1023000000023E97033604FE856793870780B297E5
:102310008E07B69798E393070008F3A74730233C4E
:10232000F4FCEF104070232E04FA8327C4FB8127AE
:102330003E85A660066461618280397106FC22F8E0
:102340008000F32740F12334F4FE833784FE2334E6
:10235000F4FC93070008F3B747302330F4FE8337CB
:1023600084FC11476368F7041397270097770200EE
:10237000938707B0BA979C431B87070097770200A3
:10238000938707AFBA978287EF20521705A8EF000F
:1023900040112DA0EF00C01115A0EF00401239A888
:1023A000EF00C01221A8832744FC812785278127BD
:1023B0002322F4FC833784FCFDF701003707000279
:1023C000B167BA9703B787FF833784FC97D60200BB
:1023D000938646068E07B6979C63B706000273265F
:1023E00040F1233CC4FC033684FD3E978567938708
:1023F0000780B2978E07B69798E393070008F3A774
:1024000047302338F4FC0100E2704274216182807D
:10241000797106F422F00018F32740F12334F4FE1A
:10242000833784FE2330F4FE833704FE114763684C
:10243000F70413972700977702009387A7A4BA970A
:102440009C431B870700977702009387A7A3BA973F
:102450008287EF00200405A8EF20A2052DA0EF1031
:10246000926A15A0EF10724F39A8EF10523421A8CC
:102470008327C4FD812785278127232EF4FC8337FA
:1024800004FEFDF70100EFF07FD90100A270027495
:1024900045618280411122E400080100226441016B
:1024A0008280411122E400080100226441018280FF
:1024B000411122E40008010022644101828041119F
:1024C00022E400080100226441018280411122E4DB
:1024D00000080100226441018280411122E40008C9
:1024E00081473E85226441018280411122E4000837
:1024F00081473E85226441018280411122E4000827
:1025000081473E85226441018280411122E4000816
:1025100081473E85226441018280411122E4000806
:1025200081473E85226441018280411122E40008F6
:1025300081473E85226441018280411122E40008E6
:1025400081473E85226441018280411122E40008D6
:1025500081473E85226441018280411122E40008C6
:1025600081473E85226441018280411122E40008B6
:1025700081473E85226441018280411122E40008A6
:1025800081473E85226441018280411122E4000896
:1025900081473E85226441018280411122E4000886
:1025A00081473E85226441018280411122E4000876
:1025B00081473E85226441018280411122E4000866
:1025C00081473E85226441018280411122E4000856
:1025D00081473E85226441018280411122E4000846
:1025E00081473E85226441018280411122E4000836
:1025F00081473E85226441018280411122E4000826
:1026000081473E85226441018280411122E4000815
:1026100081473E85226441018280411122E4000805
:1026200081473E85226441018280411122E40008F5
:1026300081473E85226441018280411122E40008E5
:1026400081473E85226441018280411122E40008D5
:1026500081473E85226441018280411122E40008C5
:1026600081473E85226441018280411122E40008B5
:1026700081473E85226441018280411122E40008A5
:1026800081473E85226441018280411122E4000895
:1026900081473E85226441018280411122E4000885
:1026A00081473E85226441018280411122E4000875
:1026B00081473E85226441018280411122E4000865
:1026C00081473E85226441018280411122E4000855
:1026D00081473E85226441018280411122E4000845
:1026E00081473E85226441018280411122E4000835
:1026F00081473E85226441018280411122E4000825
:1027000081473E85226441018280411122E4000814
:1027100081473E85226441018280411122E4000804
:1027200081473E85226441018280411122E40008F4
:1027300081473E85226441018280411122E40008E4
:1027400081473E85226441018280411122E40008D4
:1027500081473E85226441018280411122E40008C4
:1027600081473E85226441018280411122E40008B4
:1027700081473E85226441018280411122E40008A4
:1027800081473E85226441018280411122E4000894
:1027900081473E85226441018280411122E4000884
:1027A00081473E85226441018280411122E4000874
:1027B00081473E85226441018280411122E4000864
:1027C00081473E85226441018280411122E4000854
:1027D00081473E85226441018280411122E4000844
:1027E00081473E85226441018280411122E4000834
:1027F00081473E85226441018280411122E4000824
:1028000081473E85226441018280411122E4000813
:1028100081473E85226441018280411122E4000803
:1028200081473E85226441018280411122E40008F3
:1028300081473E85226441018280411122E40008E3
:1028400081473E85226441018280411122E40008D3
:1028500081473E85226441018280411122E40008C3
:1028600081473E85226441018280411122E40008B3
:1028700081473E85226441018280411122E40008A3
:1028800081473E85226441018280411122E4000893
:1028900081473E85226441018280411122E4000883
:1028A00081473E85226441018280411122E4000873
:1028B00081473E85226441018280411122E4000863
:1028C00081473E85226441018280411122E4000853
:1028D00081473E85226441018280411122E4000843
:1028E00081473E85226441018280411122E4000833
:1028F00081473E85226441018280411122E4000823
:1029000081473E85226441018280411122E4000812
:1029100081473E85226441018280411122E4000802
:1029200081473E85226441018280411122E40008F2
:1029300081473E85226441018280411122E40008E2
:1029400081473E85226441018280411122E40008D2
:1029500081473E85226441018280411122E40008C2
:1029600081473E85226441018280411122E40008B2
:1029700081473E85226441018280411122E40008A2
:1029800081473E85226441018280411122E4000892
:1029900081473E85226441018280411122E4000882
:1029A00081473E85226441018280411122E4000872
:1029B00081473E85226441018280411122E4000862
:1029C00081473E85226441018280411122E4000852
:1029D00081473E85226441018280411122E4000842
:1029E00081473E85226441018280411122E4000832
:1029F00081473E85226441018280411122E4000822
:102A000081473E85226441018280411122E4000811
:102A100081473E85226441018280411122E4000801
:102A200081473E85226441018280411122E40008F1
:102A300081473E85226441018280411122E40008E1
:102A400081473E85226441018280411122E40008D1
:102A500081473E85226441018280411122E40008C1
:102A600081473E85226441018280411122E40008B1
:102A700081473E85226441018280411122E40008A1
:102A800081473E85226441018280411122E4000891
:102A900081473E85226441018280411122E4000881
:102AA00081473E85226441018280411122E4000871
:102AB00081473E85226441018280411122E4000861
:102AC00081473E85226441018280411122E4000851
:102AD00081473E85226441018280411122E4000841
:102AE00081473E85226441018280411122E4000831
:102AF00081473E85226441018280411122E4000821
:102B000081473E85226441018280411122E4000810
:102B100081473E85226441018280411122E4000800
:102B200081473E85226441018280411122E40008F0
:102B300081473E85226441018280411122E40008E0
:102B400081473E85226441018280411122E40008D0
:102B500081473E85226441018280411122E40008C0
:102B600081473E85226441018280411122E40008B0
:102B700081473E85226441018280411122E40008A0
:102B800081473E85226441018280411122E4000890
:102B900081473E85226441018280411122E4000880
:102BA00081473E85226441018280411122E4000870
:102BB00081473E85226441018280411122E4000860
:102BC00081473E85226441018280411122E4000850
:102BD00081473E85226441018280411122E4000840
:102BE00081473E85226441018280411122E4000830
:102BF00081473E85226441018280411122E4000820
:102C000081473E85226441018280411122E400080F
:102C100081473E85226441018280411122E40008FF
:102C200081473E85226441018280411122E40008EF
:102C300081473E85226441018280411122E40008DF
:102C400081473E85226441018280411122E40008CF
:102C500081473E85226441018280411122E40008BF
:102C600081473E85226441018280411122E40008AF
:102C700081473E85226441018280411122E400089F
:102C800081473E85226441018280411122E400088F
:102C900081473E85226441018280411122E400087F
:102CA00081473E85226441018280411122E400086F
:102CB00081473E85226441018280411122E400085F
:102CC00081473E85226441018280411122E400084F
:102CD00081473E85226441018280411122E400083F
:102CE00081473E85226441018280411122E400082F
:102CF00081473E85226441018280411122E400081F
:102D000081473E85226441018280411122E400080E
:102D100081473E85226441018280411122E40008FE
:102D200081473E85226441018280411122E40008EE
:102D300081473E85226441018280411122E40008DE
:102D400081473E85226441018280411122E40008CE
:102D500081473E85226441018280411122E40008BE
:102D600081473E85226441018280411122E40008AE
:102D700081473E85226441018280411122E400089E
:102D800081473E85226441018280411122E400088E
:102D900081473E85226441018280411122E400087E
:102DA00081473E85226441018280411122E400086E
:102DB00081473E85226441018280411122E400085E
:102DC00081473E85226441018280411122E400084E
:102DD00081473E85226441018280411122E400083E
:102DE00081473E85226441018280411122E400082E
:102DF00081473E85226441018280411122E400081E
:102E000081473E85226441018280411122E400080D
:102E100081473E85226441018280411122E40008FD
:102E200081473E85226441018280411122E40008ED
:102E300081473E85226441018280411122E40008DD
:102E400081473E85226441018280411122E40008CD
:102E500081473E85226441018280411122E40008BD
:102E600081473E85226441018280411122E40008AD
:102E700081473E85226441018280411122E400089D
:102E800081473E85226441018280411122E400088D
:102E900081473E85226441018280411122E400087D
:102EA00081473E85226441018280411122E400086D
:102EB00081473E85226441018280411122E400085D
:102EC00081473E85226441018280411122E400084D
:102ED00081473E85226441018280411122E400083D
:102EE00081473E85226441018280411122E400082D
:102EF00081473E85226441018280411122E400081D
:102F000081473E85226441018280411122E400080C
:102F100081473E85226441018280411122E40008FC
:102F200081473E85226441018280411122E40008EC
:102F300081473E85226441018280411122E40008DC
:102F400081473E85226441018280411122E40008CC
:102F500081473E85226441018280411122E40008BC
:102F600081473E85226441018280411122E40008AC
:102F700081473E85226441018280411122E400089C
:102F80000100226441018280411122E40008010015
:102F9000226441018280411122E400080100226480
:102FA00041018280411122E40008010022644101B4
:102FB0008280411122E400080100226441018280E4
:102FC000411122E400080100226441018280411184
:102FD00022E400080100226441018280411122E4C0
:102FE00000080100226441018280411122E40008AE
:102FF0000100226441018280411122E400080100A5
:10300000226441018280411122E40008010022640F
:1030100041018280411122E4000801002264410143
:103020008280411122E40008010022644101828073
:10303000411122E400080100226441018280411113
:1030400022E400080100226441018280411122E44F
:1030500000080100226441018280411122E400083D
:103060000100226441018280411122E40008010034
:10307000226441018280411122E40008010022649F
:1030800041018280411122E40008010022644101D3
:103090008280411122E40008010022644101828003
:1030A000411122E4000801002264410182804111A3
:1030B00022E400080100226441018280411122E4DF
:1030C00000080100226441018280411122E40008CD
:1030D0000100226441018280411122E400080100C4
:1030E000226441018280411122E40008010022642F
:1030F00041018280411122E4000801002264410163
:103100008280411122E40008010022644101828092
:10311000411122E400080100226441018280411132
:1031200022E400080100226441018280411122E46E
:1031300000080100226441018280411122E400085C
:103140000100226441018280411122E40008010053
:10315000226441018280411122E4000801002264BE
:1031600041018280411122E40008010022644101F2
:103170008280411122E40008010022644101828022
:10318000411122E4000801002264410182804111C2
:1031900022E400080100226441018280411122E4FE
:1031A00000080100226441018280411122E40008EC
:1031B0000100226441018280411122E400080100E3
:1031C000226441018280411122E40008010022644E
:1031D00041018280411122E4000801002264410182
:1031E0008280411122E400080100226441018280B2
:1031F000411122E400080100226441018280411152
:1032000022E400080100226441018280411122E48D
:1032100000080100226441018280411122E400087B
:103220000100226441018280411122E40008010072
:10323000226441018280411122E4000801002264DD
:1032400041018280411122E4000801002264410111
:103250008280411122E40008010022644101828041
:10326000411122E4000801002264410182804111E1
:1032700022E400080100226441018280411106E439
:1032800022E00008EFF0BFFE0100A26002644101ED
:103290008280411106E422E00008EFF05FFD0100AA
:1032A000A260026441018280411106E422E000082C
:1032B000EFF0FFFB0100A260026441018280411136
:1032C00006E422E00008EFF09FFA0100A260026429
:1032D00041018280411122E4000801002264410181
:1032E0008280411122E400080100226441018280B1
:1032F000411122E400080100226441018280411151
:1033000022E400080100226441018280411122E48C
:1033100000080100226441018280411122E400087A
:103320000100226441018280411122E40008010071
:10333000226441018280411122E4000801002264DC
:1033400041018280411122E4000801002264410110
:103350008280411122E40008010022644101828040
:10336000411122E4000801002264410182804111E0
:1033700022E400080100226441018280411122E41C
:1033800000080100226441018280411122E400080A
:103390000100226441018280411122E40008010001
:1033A000226441018280411122E40008010022646C
:1033B00041018280411122E40008010022644101A0
:1033C0008280411122E400080100226441018280D0
:1033D000411122E400080100226441018280411170
:1033E00022E400080100226441018280411122E4AC
:1033F00000080100226441018280411122E400089A
:103400000100226441018280411122E40008010090
:10341000226441018280411122E4000801002264FB
:1034200041018280411122E400080100226441012F
:103430008280411122E4000801002264410182805F
:10344000411122E4000801002264410182804111FF
:1034500022E400080100226441018280411122E43B
:1034600000080100226441018280411122E4000829
:103470000100226441018280411122E40008010020
:10348000226441018280411122E40008010022648B
:1034900041018280411122E40008010022644101BF
:1034A0008280411122E400080100226441018280EF
:1034B000411122E40008010022644101828041118F
:1034C00022E400080100226441018280411106E4E7
:1034D00022E0000813060008976502009385059C0A
:1034E00037550020EFD0EF911306000897650200D2
:1034F0009385C5A2B757002013850710EFD06F90B2
:103500001306000497650200938545A9B75700206C
:1035100013850720EFD0EF8E130600029765020097
:103520009385C5ABB757002013850730EFD06F8D5B
:103530001306000497650200938545ACB757002039
:1035400013850740EFD0EF8B130600049765020048
:103550009385C5AEB757002013850750EFD06F8A0B
:103560001306000297650200938545B7B757002000
:1035700013850760EFD0EF881306000297650200FD
:103580009385C5AFB757002013850770EFD06F87BD
:103590001306000497650200938545B0B7670020C5
:1035A00013850780EFD0EF8541469765020093852C
:1035B000E5B4B767002013850790EFD08F8481476B
:1035C0003E85A260026441018280797122F4001874
:1035D000AA87AE863287A30FF4FCB687232CF4FCAF
:1035E000BA87230FF4FC8547A307F4FEA30704FE64
:1035F0008347F4FE3E85227445618280011122ECEE
:103600000010AA872E872326F4FEBA872324F4FE0F
:10361000832784FE1B87070085476313F704B727BA
:10362000002083A747089B8607008327C4FE93C713
:10363000F7FF1B870700B7270020758F012723A2FC
:10364000E708B727002083A787089B860700B727CE
:1036500000200327C4FE558F012723A4E70889A073
:10366000B727002083A747089B860700B7270020BD
:103670000327C4FE558F012723A2E708B7270020A0
:1036800083A787089B8607008327C4FE93C7F7FF9D
:103690001B870700B7270020758F012723A4E708A1
:1036A0000100626405618280797106F422F00018DD
:1036B000AA87AE863287232EF4FCB687A30DF4FCCE
:1036C000BA87232AF4FC8547A307F4FE1767020094
:1036D0001307C7A38367C4FD9207BA97984383274C
:1036E000C4FD81276383E700029017670200130778
:1036F000E7A18367C4FD9207BA97DC4393F6F70FFF
:1037000017670200130787A08367C4FD9207BA9763
:103710009C470347B4FD3A86BE853685EFF0FFEA45
:10372000AA87A307F4FE8347F4FE93F7F70F85E318
:10373000176702001307879D8367C4FD9207BA9736
:10374000DC47032744FDBA853E85EFF03FEB834716
:10375000F4FE3E85A270027445618280411122E42C
:103760000008B727002083A787081B870700B72713
:103770000020BA8601777D17758F012723A4E708FB
:103780000100226441018280011122EC0010AA870D
:103790002326F4FEB72700200327C4FE23A0E70852
:1037A0000100626405618280011122EC0010AA8789
:1037B000A307F4FE7350003A7350203A8347F4FE97
:1037C0001B870700976602009386C6BABA878E07E2
:1037D000BA979207B6979C6B7390073B8347F4FEAA
:1037E0001B870700976602009386C6B8BA878E07C4
:1037F000BA979207B6979C6F7390173B8347F4FE76
:103800001B870700976602009386C6B6BA878E07A5
:10381000BA979207B6979C737390273B8347F4FE41
:103820001B870700976602009386C6B4BA878E0787
:10383000BA979207B6979C777390373B8347F4FE0D
:103840001B870700976602009386C6B2BA878E0769
:10385000BA979207B6979C7B7390473B8347F4FED9
:103860001B870700976602009386C6B0BA878E074B
:10387000BA979207B6979C7F7390573B8347F4FEA5
:103880001B870700976602009386C6AEBA878E072D
:10389000BA979207B697BC637390673B8347F4FE71
:1038A0001B870700976602009386C6ACBA878E070F
:1038B000BA979207B697BC677390773B8347F4FE3D
:1038C0001B870700976602009386C6AABA878E07F1
:1038D000BA979207B697BC6B7390873B8347F4FE09
:1038E0001B870700976602009386C6A8BA878E07D3
:1038F000BA979207B697BC6F7390973B8347F4FED5
:103900001B870700976602009386C6A6BA878E07B4
:10391000BA979207B697BC737390A73B8347F4FEA0
:103920001B870700976602009386C6A4BA878E0796
:10393000BA979207B697BC777390B73B8347F4FE6C
:103940001B870700976602009386C6A2BA878E0778
:10395000BA979207B697BC7B7390C73B8347F4FE38
:103960001B870700976602009386C6A0BA878E075A
:10397000BA979207B697BC7F7390D73B8347F4FE04
:103980001B870700976602009386C69EBA878E073C
:10399000BA979207B697DC637390E73B8347F4FED0
:1039A0001B870700976602009386C69CBA878E071E
:1039B000BA979207B697DC677390F73B8347F4FE9C
:1039C0001B870700976602009386C69ABA878E0700
:1039D000BA979207B6979C637390073A81473E85E2
:1039E000626405618280011122EC0010F3770430DB
:1039F0002334F4FE93070008F3B707302330F4FEB6
:103A00000100626405618280411106E422E0000841
:103A1000EFF07FFD73504030735040340100A260DE
:103A2000026441018280011122EC0010F36704302E
:103A30002334F4FE0100626405618280397122FC46
:103A40008000AA87A307F4FC8347F4FC93F7F70FE1
:103A500091E302908347F4FC13F7F70F9307F0020A
:103A600063F3E7000290F32740F12334F4FE833739
:103A700084FEA303F4FE8347F4FC93F7F70F6386F9
:103A800007128347F4FC13F7F70F9307F00263EE76
:103A9000E7108347F4FCC12793F7F70F9B97870143
:103AA0009BD7874181273E878547B397E700F3A7D8
:103AB0004730233CF4FC8347F4FC13F7F70FBD4772
:103AC00063F5E70E834774FE13F7F70F8547631816
:103AD000F702B7270020BC439B8607008347F4FC0E
:103AE0008127C13781273E878547BB97E7001B8722
:103AF0000700B7270020558F0127B8C37DA0834753
:103B000074FE13F7F70F89476318F702B7270020F1
:103B1000FC439B8607008347F4FC8127C13781273C
:103B20003E878547BB97E7001B870700B727002024
:103B3000558F0127F8C395A8834774FE13F7F70F35
:103B40008D476318F702B7270020BC479B86070004
:103B50008347F4FC8127C13781273E878547BB9780
:103B6000E7001B870700B7270020558F0127B8C73C
:103B70002DA8834774FE13F7F70F91476317F702D9
:103B8000B7270020FC479B8607008347F4FC81276A
:103B9000C13781273E878547BB97E7001B87070012
:103BA000B7270020558F0127F8C7010062742161F3
:103BB0008280797122F40018AA87A30FF4FC83474E
:103BC000F4FD93F7F70F91E302908347F4FD13F7A9
:103BD000F70F9307F00263F3E70002908347F4FDC9
:103BE00093F7F70F9DCB8347F4FD13F7F70F930778
:103BF000F00263E4E7028347F4FDC12793F7F70F70
:103C00009B9787019BD7874181273E878547B3973D
:103C1000E700F3B747302334F4FE01002274456116
:103C20008280011106EC22E80010F32700302334D3
:103C3000F4FE833784FE2330F4FEEFF0DFDA8337BF
:103C400004FE3E85E260426405618280011122EC3F
:103C500000102334A4FE833784FE739007300100E4
:103C6000626405618280397122FC8000AA87232664
:103C7000F4FCF32740F12334F4FE833784FE233031
:103C8000F4FE033704FE914763E2E724833704FE22
:103C900013972700976702009387C79ABA979C43A8
:103CA0001B870700976702009387C799BA97828797
:103CB0003707000C8327C4FC9BD7570081279396B6
:103CC00007028192856793870780B6978A07BA971C
:103CD0009C43232EF4FC8327C4FCFD8B81273E8765
:103CE0008547BB97E7001B8707008327C4FDD98F53
:103CF000232EF4FC3707000C8327C4FC9BD7570006
:103D00008127939607028192856793870780B697EC
:103D10008A07BA970327C4FD98C355AA3707000C32
:103D20008327C4FC9BD75700812793960702819273
:103D3000856793870782B6978A07BA979C43232E95
:103D4000F4FC8327C4FCFD8B81273E878547BB9706
:103D5000E7001B8707008327C4FDD98F232EF4FCBF
:103D60003707000C8327C4FC9BD757008127939605
:103D700007028192856793870782B6978A07BA9769
:103D80000327C4FD98C3A1A23707000C8327C4FCF6
:103D90009BD7570081279396070281928567938767
:103DA0000786B6978A07BA979C43232EF4FC83278D
:103DB000C4FCFD8B81273E878547BB97E7001B87A7
:103DC00007008327C4FDD98F232EF4FC3707000C8E
:103DD0008327C4FC9BD757008127939607028192C3
:103DE000856793870786B6978A07BA970327C4FD26
:103DF00098C3F1A83707000C8327C4FC9BD7570052
:103E0000812793960702819285679387078AB697E1
:103E10008A07BA979C43232EF4FC8327C4FCFD8BAE
:103E200081273E878547BB97E7001B8707008327CD
:103E3000C4FDD98F232EF4FC3707000C8327C4FC64
:103E40009BD75700812793960702819285679387B6
:103E5000078AB6978A07BA970327C4FD98C385A82F
:103E60003707000C8327C4FC9BD757008127939604
:103E70000702819285679387078EB6978A07BA975C
:103E80009C43232EF4FC8327C4FCFD8B81273E87B3
:103E90008547BB97E7001B8707008327C4FDD98FA1
:103EA000232EF4FC3707000C8327C4FC9BD7570054
:103EB000812793960702819285679387078EB6972D
:103EC0008A07BA970327C4FD98C311A00100010017
:103ED000627421618280397122FC8000AA872326C6
:103EE000F4FCF32740F12334F4FE833784FE2330BF
:103EF000F4FE033704FE914763E1E726833704FEAF
:103F0000139727009757020093870775BA979C432A
:103F10001B8707009757020093870774BA97828719
:103F20003707000C8327C4FC9BD757008127939643
:103F300007028192856793870780B6978A07BA97A9
:103F40009C43232EF4FC8327C4FCFD8B81273E87F2
:103F50008547BB97E700812793C7F7FF1B870700BB
:103F60008327C4FDF98F232EF4FC3707000C832729
:103F7000C4FC9BD7570081279396070281928567DF
:103F800093870780B6978A07BA970327C4FD98C31B
:103F9000F1A23707000C8327C4FC9BD75700812769
:103FA000939607028192856793870782B6978A075F
:103FB000BA979C43232EF4FC8327C4FCFD8B8127F6
:103FC0003E878547BB97E700812793C7F7FF1B878D
:103FD00007008327C4FDF98F232EF4FC3707000C5C
:103FE0008327C4FC9BD757008127939607028192B1
:103FF000856793870782B6978A07BA970327C4FD18
:1040000098C3A9AA3707000C8327C4FC9BD7570085
:104010008127939607028192856793870786B697D3
:104020008A07BA979C43232EF4FC8327C4FCFD8B9C
:1040300081273E878547BB97E700812793C7F7FF16
:104040001B8707008327C4FDF98F232EF4FC370755
:10405000000C8327C4FC9BD7570081279396070247
:104060008192856793870786B6978A07BA97032751
:10407000C4FD98C3E5A03707000C8327C4FC9BD779
:104080005700812793960702819285679387078A55
:10409000B6978A07BA979C43232EF4FC8327C4FC67
:1040A000FD8B81273E878547BB97E700812793C714
:1040B000F7FF1B8707008327C4FDF98F232EF4FC2D
:1040C0003707000C8327C4FC9BD7570081279396A2
:1040D0000702819285679387078AB6978A07BA97FE
:1040E0000327C4FD98C39DA83707000C8327C4FC91
:1040F0009BD7570081279396070281928567938704
:10410000078EB6978A07BA979C43232EF4FC832721
:10411000C4FCFD8B81273E878547BB97E70081273D
:1041200093C7F7FF1B8707008327C4FDF98F232E52
:10413000F4FC3707000C8327C4FC9BD7570081276A
:1041400093960702819285679387078EB6978A07B1
:10415000BA970327C4FD98C311A00100010062743F
:1041600021618280011106EC22E800102334A4FEB4
:10417000AE8732872322F4FEBA87A301F4FE0347F9
:1041800034FE832744FE3A86BE85033584FEEF0065
:104190002066833784FE9C6383C7070313F7F70FFA
:1041A000833784FE9C635D9B1377F70F2388E702B8
:1041B000833784FE9C6383C7470313F7F70F833766
:1041C00084FE9C636D9B1377F70F238AE702833786
:1041D00084FE9C6383C7870313F7F70F833784FE3E
:1041E0009C63799B1377F70F238CE702833784FE58
:1041F000171700001307C7E998FB0100E26042644B
:10420000056182805D71A2E480082334A4FC233020
:10421000B4FCB287232EF4FA232604FE8327C4FBC2
:104220002322F4FE833704FC91E302908327C4FB2E
:10423000812791E30290833704FCDDCB832744FE82
:104240008127DDC7833784FC9C6383C74701A30FA5
:10425000F4FC833784FC03C7D7008347F4FDD98F70
:1042600013F7F70F833784FCA386E7008347F4FD39
:10427000812793F707028127A5CBC1472320F4FEAE
:10428000832744FE1B870700BD4763E6E7008327BB
:1042900044FE2320F4FE232404FE3DA08367C4FED5
:1042A000033704FC3E97833784FC9C630347070075
:1042B0002380E7008327C4FE85272326F4FE832777
:1042C00084FE85272324F4FE032784FE832704FE2F
:1042D00001278127E364F7FC032744FE832784FE3C
:1042E000BB07F7402322F4FE832744FE8127B9FB56
:1042F0000100266461618280797122F40018233CF8
:10430000A4FC2338B4FC232604FE833704FD91E388
:104310000290833704FDC5C78367C4FE033704FDDD
:10432000BA9783C70700A303F4FE69A0833784FD0F
:104330009C6383C747012303F4FE833784FD03C7CF
:10434000D700834764FED98F13F7F70F833784FDB7
:10435000A386E700834764FE812793F7070281273E
:10436000F1D7232404FE1DA8833784FD9C630347F3
:1043700074FE2380E700832784FE85272324F4FE30
:104380008327C4FE85272326F4FE8367C4FE0337F4
:1043900004FDBA9783C70700A303F4FE834774FEA6
:1043A00093F7F70F81CB832784FE1B870700BD4758
:1043B000E3FCE7FA834774FE93F7F70FA5FB0100D0
:1043C000227445618280397122FC8000233CA4FC68
:1043D0002338B4FC2334C4FC233404FEA30304FEBA
:1043E000833704FD91E30290833784FC91E30290CC
:1043F000833704FDC1CF833784FCC9CB833784FD69
:104400009C6383C74701A303F4FE833784FD03C77E
:10441000D700834774FED98F13F7F70F833784FDD6
:10442000A386E70081A8833784FD9863833604FD63
:10443000833784FEB697034707001377F70F23806F
:10444000E700833784FE85072334F4FE833784FD39
:104450009C6383C74701A303F4FE833784FD03C72E
:10446000D700834774FED98F13F7F70F833784FD86
:10447000A386E700834774FE8127858B812799C730
:10448000033784FE833784FCE36FF7F8833784FEB9
:104490003E85627421618280797106F422F00018F1
:1044A0002334A4FE2330B4FEB287232EF4FC8337DA
:1044B00004FE91E302908327C4FD1B870700930746
:1044C000000C63F3E7000290833704FEC9C783271B
:1044D000C4FD1B8707009307000C63EEE7068337D4
:1044E00084FE033704FE98F7833784FE9C6383C7FA
:1044F000870093F7F70F9B9787019BD7874193F727
:10450000F7031B9787011B5787418327C4FD9B97A0
:1045100087019BD78741D98F1B9787011B578741FD
:10452000833784FE9C631377F70F2384E700833778
:1045300084FE9C6383C7470013F7F70F833784FE1D
:104540009C63136717001377F70F2382E700033587
:1045500084FEEF00F0450100A27002744561828084
:10456000411106E422E0000897B70200938787D044
:104570009C43858B812781CB17050E00130505E22F
:10458000EF00101139A017050E001305A5CAEF00A2
:10459000301081473E85A260026441018280411152
:1045A00006E422E0000897B702009387A7CC9C435B
:1045B000898B812781CB17050E001305A5B8EF0065
:1045C000300D39A017050E001305C5E4EF00500C9F
:1045D00081473E85A260026441018280411106E468
:1045E00022E0000897B702009387C7C89C43918BCD
:1045F000812781CB17050E00130545BCEF0050093C
:1046000039A017050E00130565ACEF00700881474F
:104610003E85A260026441018280411106E422E0ED
:10462000000897B702009387E7C49C43A18B8127BA
:1046300081CB17050E00130565E5EF00700539A065
:1046400017050E00130505CEEF00900481473E8547
:10465000A260026441018280411106E422E0000868
:1046600097B70200938707C19C43C18B812781CBF9
:1046700017050E001305059EEF00900139A01705E0
:104680000E001305A5C2EF00B00081473E85A26071
:10469000026441018280411106E422E0000897B7DC
:1046A0000200938727BD9C43858B812781CB17050B
:1046B0000E001305A5CEEF00A07D39A017050E0052
:1046C000130545B7EF00C07C0100A2600264410100
:1046D0008280411106E422E0000897B70200938728
:1046E00067B99C43898B812781CB17050E00130581
:1046F00065A5EF00E07939A017050E00130585D1F7
:10470000EF0000790100A260026441018280411142
:1047100006E422E0000897B702009387A7B59C4300
:10472000918B812781CB17050E00130525A9EF007A
:10473000207639A017050E0013054599EF00407546
:104740000100A260026441018280411106E422E07E
:10475000000897B702009387E7B19C43A18B81279C
:1047600081CB17050E00130565D2EF00607239A0EA
:1047700017050E00130505BBEF0080710100A26054
:10478000026441018280411106E422E0000897B7EB
:104790000200938727AE9C43C18B812781CB1705ED
:1047A0000E001305258BEF00A06E39A017050E0033
:1047B0001305C5AFEF00C06D0100A26002644101A6
:1047C0008280011106EC22E800102334A4FE033598
:1047D00084FEEF00102E833784FE05472384E7060E
:1047E0002D45EFF0AFA50100E260426405618280D3
:1047F000011106EC22E800102334A4FEAE873287B4
:104800002322F4FEBA87A301F4FE033784FE970740
:104810000E00938727A26315F702833784FE3707BC
:10482000002098E397B702009387C7A49C43F99BA5
:104830001B87070097B702009387C7A398C3D5AA21
:10484000033784FE97070E009387C7BC6315F702F2
:10485000833784FE3707102098E397B702009387C9
:1048600067A19C43F59B1B87070097B702009387BE
:1048700067A098C37DAA033784FE97070E0093872D
:10488000E7846315F702833784FE3727102098E307
:1048900097B702009387079E9C43ED9B1B870700F9
:1048A00097B702009387079D98C361A2033784FEE0
:1048B00097070E00938707A76315F702833784FED7
:1048C0003747102098E397B702009387A79A9C4335
:1048D000DD9B1B87070097B702009387A79998C3B2
:1048E00089AA033784FE97070E009387279C6315D8
:1048F000F702833784FE3767102098E397B70200EA
:10490000938747979C43BD9B1B87070097B702007F
:104910009387479698C331AA033784FE97070E0002
:104920009387C7A76316F702833784FE37070028EB
:1049300098E397B702009387E7939C4393E71700A8
:104940001B87070097B702009387C79298C3D5A02B
:10495000033784FE97F70D009387C77E6316F7022F
:10496000833784FE3707102898E397B702009387B0
:1049700067909C4393E727001B87070097B70200C7
:104980009387478F98C375A0033784FE97070E005F
:104990009387C7826316F702833784FE3727102870
:1049A00098E397B702009387E78C9C4393E747000F
:1049B0001B87070097B702009387C78B98C395A8FA
:1049C000033784FE97070E00938747AC6316F70200
:1049D000833784FE3747102898E397B70200938700
:1049E00067899C4393E787001B87070097B70200FE
:1049F0009387478898C335A8033784FE97F70D003F
:104A0000938747656316F702833784FE376710285C
:104A100098E397B702009387E7859C4393E70701E4
:104A20001B87070097B702009387C78498C311A01C
:104A30000290833784FE9C6323820700833784FEC1
:104A40009C6323840700833784FE9C6383C78700AD
:104A500013F7F70F833784FE9C63136727001377E0
:104A6000F70F2384E700833784FE9C6383C78700A6
:104A700013F7F70F833784FE9C63136747001377A0
:104A8000F70F2384E700833784FE9C6383C7870086
:104A900013F7F70F833784FE9C63136717001377B0
:104AA000F70F2384E700833784FE9C6383C70701E5
:104AB00013F7F70F833784FE9C633D9B1377F70F43
:104AC0002388E700833784FE9C6383C7070113F7BD
:104AD000F70F833784FE9C631377F7FD1377F70F87
:104AE0002388E700833784FE9C6383C7470313F75B
:104AF000F70F833784FE9C63759B1377F70F238A28
:104B0000E702833784FE9C6383C7470313F7F70FDD
:104B1000833784FE9C63799B1377F70F238AE70220
:104B2000833784FE9C6383C7870313F7F70F8337AC
:104B300084FE9C63759B1377F70F238CE702833702
:104B400084FE9C6383C7070313F7F70F833784FE44
:104B50009C631377F7FD1377F70F2388E7028337FA
:104B600084FE9C6383C7070313F7F70F833784FE24
:104B70009C631377F7FB1377F70F2388E7028337DC
:104B800084FE9C6383C7070313F7F70F833784FE04
:104B90009C631377F7071377F70F2388E7028337B0
:104BA00084FE9C6383C7870313F7F70F833784FE64
:104BB0009C635D9B1377F70F238CE702833784FE9A
:104BC0009C6323820704833784FE9C632384070449
:104BD000833784FE9C6323860704832744FEBE85B7
:104BE000033584FEEF00200A833784FE9C6303476D
:104BF00034FE2386E700833784FE032744FE98C7EC
:104C0000833784FE034734FE2386E700833784FE20
:104C100023AC0700833784FE23B80700833784FE64
:104C200023AE0700833784FE23B40702833784FE54
:104C300023B80702833784FE23B00702833784FE3C
:104C400023BC0702833784FE23B00704833784FE26
:104C500023B40704833784FE23B80704833784FE14
:104C600023BC0704833784FE23B00706833784FE02
:104C700023840706833784FEA38607000100E260D1
:104C8000426405618280397122FC80002334A4FCD7
:104C9000AE872322F4FC833784FC032744FC98C7A7
:104CA000B7D7F008938707182334F4FE833784FEC0
:104CB00013973700836744FCB357F7022322F4FEAF
:104CC000832744FE9BD717002320F4FE832704FE8E
:104CD0009BD76700232EF4FC8327C4FD9B976700B6
:104CE0008127032704FEBB07F740232CF4FC83270E
:104CF000C4FD9B9777008127032744FEBB07F7403D
:104D00001B870700832784FD9B9717008127BB071C
:104D1000F7408127032784FDB99F232CF4FC8327C8
:104D2000C4FD1B870700C1676363F70002908327F8
:104D3000C4FD1B870700C1676378F7148327C4FD90
:104D40001B870700854763FBE70A833784FC9C6366
:104D500083C7C70013F7F70F833784FC9C6313677F
:104D600007F81377F70F2386E7008327C4FD9BD747
:104D700087001B870700833784FC9C631377F70F3A
:104D80002382E700833784FC9C630327C4FD1377E9
:104D9000F70F2380E700833784FC9C6383C7C70039
:104DA00013F7F70F833784FC9C631377F7071377A8
:104DB000F70F2386E700833784FC9C6383C70703D0
:104DC00013F7F70F833784FC9C63136707F8137797
:104DD000F70F2388E702832784FD1B8707009307CB
:104DE000F00F63F3E7000290833784FC9C63032792
:104DF00084FD1377F70F238EE70279A0833784FCB5
:104E00009C6383C7C70013F7F70F833784FC9C6349
:104E1000136707F81377F70F2386E7008327C4FD8E
:104E20009BD787001B870700833784FC9C6313771D
:104E3000F70F2382E700833784FC9C630327C4FDBC
:104E40001377F70F2380E700833784FC9C6383C7C5
:104E5000C70013F7F70F833784FC9C631377F707BA
:104E60001377F70F2386E700833784FC9C6383C79F
:104E7000070313F7F70F833784FC9C631377F70757
:104E80001377F70F2388E7020100627421618280A3
:104E9000797106F422F00018233CA4FC833784FDCA
:104EA0009C6383C7870093F7F70FBD8BA307F4FEBE
:104EB0008347F4FE8127BE8631476369D71A13976B
:104EC0002700974702009387677ABA979C431B870E
:104ED00007009747020093876779BA9782878337DD
:104EE00084FD9C7F91E30290833784FD9C7F6381E6
:104EF0000718833784FD9C7F033584FD82978DAA34
:104F0000833784FD9C7B91E30290833784FD9C7BF7
:104F100063820716833784FD9C7B033584FD82976B
:104F200091AA833784FD9C7791E30290833784FDB7
:104F30009C7763830714833784FD9C77033584FD56
:104F400082971DAA833784FD9C7391E30290833777
:104F500084FD9C7363840712833784FD9C7303353F
:104F600084FD829721AA833784FD9C6383C78702CF
:104F700093F7F70F8127858B812785C3833784FDBE
:104F8000BC6391E30290833784FDBC6399C7833788
:104F900084FDBC63033584FD8297833784FD9C6365
:104FA00083C7870293F7F70F8127898B812785C3F2
:104FB000833784FDBC6791E30290833784FDBC672F
:104FC00099C7833784FDBC67033584FD8297833797
:104FD00084FD9C6383C7870293F7F70F8127918B2A
:104FE000812785C3833784FDBC6B91E302908337AF
:104FF00084FDBC6B99C7833784FDBC6B033584FD8E
:105000008297833784FD9C6383C7870293F7F70FEA
:105010008127A18B812785C3833784FDBC6F91E3F2
:105020000290833784FDBC6F99C7833784FDBC6FC2
:10503000033584FD8297833784FD9C6383C7870291
:1050400093F7F70F8127C18B81279DCB833784FD91
:10505000BC7391E30290833784FDBC7395C383379F
:1050600084FDBC73033584FD829719A8029011A8B2
:10507000010001A8010031A0010021A0010011A040
:1050800001000100A270027445618280797122F4EE
:105090000018233CA4FC833784FD9C6B91E30290B1
:1050A000833784FD9C4F91E30290833784FD9C6B92
:1050B000E5CF833784FD9C4FE5CB833784FD9C632C
:1050C00083C74701A303F4FE833784FD03C7D700DA
:1050D000834774FED98F13F7F70F833784FDA386B8
:1050E000E700834774FE812793F707028127D1C326
:1050F000C1472324F4FE833784FD984F833784FD12
:10510000DC4FBB07F7402320F4FE832704FE1B87F8
:105110000700BD4763E6E700832704FE2324F4FE6F
:10512000232604FE3DA8833784FD986B833784FDD6
:10513000DC4F821781933E97833784FD9C6303473E
:1051400007002380E700833784FDDC4F85271B871A
:105150000700833784FDD8CF8327C4FE8527232605
:10516000F4FE0327C4FE832784FE01278127E36C16
:10517000F7FA833784FDD84F833784FD9C4F63153E
:10518000F702833784FD23AC0700833784FD9C63DB
:1051900083C7470013F7F70F833784FD9C63759B24
:1051A0001377F70F2382E7000100227445618280A4
:1051B000797106F422F00018233CA4FC232604FE97
:1051C000833784FD83C78706E5E3033784FD97F7BC
:1051D0000D0093872706630AF700033784FD97F7CE
:1051E0000D009387A71B6317F7009307A0052326DD
:1051F000F4FE75A0033784FD97F70D009387872190
:10520000630AF700033784FD97F70D00938787F350
:105210006317F7009307B0052326F4FE49A0033770
:1052200084FD97F70D00938767EA630AF700033759
:1052300084FD97F70D00938767F86317F7009307CE
:10524000C0052326F4FEA1A8033784FD97F70D00BF
:105250009387470D630AF700033784FD97F70D0026
:105260009387C7226317F7009307D0052326F4FE20
:105270003DA0033784FD97F70D0093872703630A4A
:10528000F700033784FD97F70D009387A7DC6317BA
:10529000F7009307E0052326F4FE11A00290832770
:1052A000C4FE3E85EFE03F9C0100A27002744561A0
:1052B0008280797106F422F00018233CA4FC232696
:1052C00004FE033784FD97F70D009387A7F6630A62
:1052D000F700033784FD97F70D009387270C6317BA
:1052E000F7009307A0052326F4FE75A0033784FD7D
:1052F00097F70D0093870712630AF700033784FDC1
:1053000097F70D00938707E46317F7009307B0053D
:105310002326F4FE49A0033784FD97F70D009387F9
:10532000E7DA630AF700033784FD97F70D009387E8
:10533000E7E86317F7009307C0052326F4FEA1A84A
:10534000033784FD97F70D009387C7FD630AF700C5
:10535000033784FD97F70D00938747136317F70012
:105360009307D0052326F4FE3DA0033784FD97F76D
:105370000D009387A7F3630AF700033784FD97F7BF
:105380000D00938727CD6317F7009307E0052326C9
:10539000F4FE11A002908327C4FE3E85EFE0BFB368
:1053A0000100A270027445618280397122FC800084
:1053B000AA872326F4FCF32740F12334F4FE833735
:1053C00084FE2330F4FE033704FE914763E2E724B2
:1053D000833704FE13972700974702009387472CD3
:1053E000BA979C431B870700974702009387472B78
:1053F000BA9782873707000C8327C4FC9BD75700D6
:105400008127939607028192856793870780B697D5
:105410008A07BA979C43232EF4FC8327C4FCFD8B98
:1054200081273E878547BB97E7001B8707008327B7
:10543000C4FDD98F232EF4FC3707000C8327C4FC4E
:105440009BD75700812793960702819285679387A0
:105450000780B6978A07BA970327C4FD98C355AA51
:105460003707000C8327C4FC9BD7570081279396EE
:1054700007028192856793870782B6978A07BA9752
:105480009C43232EF4FC8327C4FCFD8B81273E879D
:105490008547BB97E7001B8707008327C4FDD98F8B
:1054A000232EF4FC3707000C8327C4FC9BD757003E
:1054B0008127939607028192856793870782B69723
:1054C0008A07BA970327C4FD98C3A1A23707000C27
:1054D0008327C4FC9BD757008127939607028192AC
:1054E000856793870786B6978A07BA979C43232ECA
:1054F000F4FC8327C4FCFD8B81273E878547BB973F
:10550000E7001B8707008327C4FDD98F232EF4FCF7
:105510003707000C8327C4FC9BD75700812793963D
:1055200007028192856793870786B6978A07BA979D
:105530000327C4FD98C3F1A83707000C8327C4FCD8
:105540009BD757008127939607028192856793879F
:10555000078AB6978A07BA979C43232EF4FC8327C1
:10556000C4FCFD8B81273E878547BB97E7001B87DF
:1055700007008327C4FDD98F232EF4FC3707000CC6
:105580008327C4FC9BD757008127939607028192FB
:1055900085679387078AB6978A07BA970327C4FD5A
:1055A00098C385A83707000C8327C4FC9BD75700F6
:1055B000812793960702819285679387078EB69716
:1055C0008A07BA979C43232EF4FC8327C4FCFD8BE7
:1055D00081273E878547BB97E7001B870700832706
:1055E000C4FDD98F232EF4FC3707000C8327C4FC9D
:1055F0009BD75700812793960702819285679387EF
:10560000078EB6978A07BA970327C4FD98C311A0DF
:1056100001000100627421618280397122FC8000E6
:10562000AA872326F4FCF32740F12334F4FE8337C2
:1056300084FE2330F4FE033704FE914763E1E7263E
:10564000833704FE13972700974702009387870646
:10565000BA979C431B8707009747020093878705EB
:10566000BA9782873707000C8327C4FC9BD7570063
:105670008127939607028192856793870780B69763
:105680008A07BA979C43232EF4FC8327C4FCFD8B26
:1056900081273E878547BB97E700812793C7F7FFA0
:1056A0001B8707008327C4FDF98F232EF4FC3707DF
:1056B000000C8327C4FC9BD75700812793960702D1
:1056C0008192856793870780B6978A07BA970327E1
:1056D000C4FD98C3F1A23707000C8327C4FC9BD7F5
:1056E00057008127939607028192856793870782E7
:1056F000B6978A07BA979C43232EF4FC8327C4FCF1
:10570000FD8B81273E878547BB97E700812793C79D
:10571000F7FF1B8707008327C4FDF98F232EF4FCB6
:105720003707000C8327C4FC9BD75700812793962B
:1057300007028192856793870782B6978A07BA978F
:105740000327C4FD98C3A9AA3707000C8327C4FC0C
:105750009BD757008127939607028192856793878D
:105760000786B6978A07BA979C43232EF4FC8327B3
:10577000C4FCFD8B81273E878547BB97E7008127C7
:1057800093C7F7FF1B8707008327C4FDF98F232EDC
:10579000F4FC3707000C8327C4FC9BD757008127F4
:1057A000939607028192856793870786B6978A0743
:1057B000BA970327C4FD98C3E5A03707000C8327D9
:1057C000C4FC9BD757008127939607028192856777
:1057D0009387078AB6978A07BA979C43232EF4FCCF
:1057E0008327C4FCFD8B81273E878547BB97E70055
:1057F000812793C7F7FF1B8707008327C4FDF98F15
:10580000232EF4FC3707000C8327C4FC9BD75700DA
:10581000812793960702819285679387078AB697B7
:105820008A07BA970327C4FD98C39DA83707000CC1
:105830008327C4FC9BD75700812793960702819248
:1058400085679387078EB6978A07BA979C43232E5E
:10585000F4FC8327C4FCFD8B81273E878547BB97DB
:10586000E700812793C7F7FF1B8707008327C4FD45
:10587000F98F232EF4FC3707000C8327C4FC9BD739
:105880005700812793960702819285679387078E39
:10589000B6978A07BA970327C4FD98C311A00100E1
:1058A0000100627421618280011122EC0010AA873C
:1058B0002E872326F4FEBA872324F4FE8327C4FE12
:1058C000812795C78327C4FE1B8707009307A00B7A
:1058D00063EFE7003707000C8327C4FEFD378127FD
:1058E000821781938A07BA97032784FED8C30100E1
:1058F000626405618280397106FC22F880002334DD
:10590000A4FC2330B4FC833704FC91E302900337FA
:1059100084FC970712009387E7C0630BF7020337F5
:1059200084FC970714009387E7406303F70203376B
:1059300084FC97F70D009387E7BC630BF7000337F0
:1059400084FC97F70F009387E73C6303F70002900E
:10595000833504FC033584FCEF302063033784FC7B
:1059600097071200938707BC6316F706B727002036
:1059700083A747081B870700B72700201367270066
:10598000012723A2E708B727002083A787081B87E2
:105990000700B727002013672700012723A4E70883
:1059A000233004FE31A0833704FE85072330F4FE44
:1059B000033704FE9307803EE317F7FEB727002066
:1059C00083A787081B870700B7270020759B01273F
:1059D00023A4E708033784FC9707140093878735CF
:1059E0006316F706B727002083A747081B87070021
:1059F000B727002013674700012723A2E708B7272E
:105A0000002083A787081B870700B727002013679C
:105A10004700012723A4E708233C04FC31A0833777
:105A200084FD8507233CF4FC033784FD9307803E07
:105A3000E317F7FEB727002083A787081B87070017
:105A4000B72700206D9B012723A4E708833784FC38
:105A50009C43639B0712033784FC9967938787E015
:105A6000BA979B860700033784FCA167BA9783B770
:105A7000871A368713671700012798C3033784FCFA
:105A8000B967938787FDBA979B860700033784FC25
:105A9000C167BA9783B7873736871367170001271F
:105AA00098C3033784FCD9679387871ABA979B8674
:105AB0000700033784FCE167BA9783B787543687BA
:105AC00013671700012798C3033784FCF96793878E
:105AD0008737BA979B860700033784FCB707020015
